{
  "contractName": "VendingMachine",
  "abi": [
    {
      "inputs": [],
      "stateMutability": "nonpayable",
      "type": "constructor"
    },
    {
      "inputs": [
        {
          "internalType": "address",
          "name": "",
          "type": "address"
        }
      ],
      "name": "donutsBalance",
      "outputs": [
        {
          "internalType": "uint8",
          "name": "",
          "type": "uint8"
        }
      ],
      "stateMutability": "view",
      "type": "function"
    },
    {
      "inputs": [],
      "name": "getRemainingDonuts",
      "outputs": [
        {
          "internalType": "uint8",
          "name": "",
          "type": "uint8"
        }
      ],
      "stateMutability": "view",
      "type": "function"
    },
    {
      "inputs": [
        {
          "internalType": "uint8",
          "name": "amount",
          "type": "uint8"
        }
      ],
      "name": "reStock",
      "outputs": [],
      "stateMutability": "nonpayable",
      "type": "function"
    },
    {
      "inputs": [
        {
          "internalType": "uint8",
          "name": "amount",
          "type": "uint8"
        }
      ],
      "name": "purchase",
      "outputs": [],
      "stateMutability": "payable",
      "type": "function"
    }
  ],
  "bytecode": "0x608060405234801561001057600080fd5b50336000806101000a81548173ffffffffffffffffffffffffffffffffffffffff021916908373ffffffffffffffffffffffffffffffffffffffff1602179055506064600160003073ffffffffffffffffffffffffffffffffffffffff1673ffffffffffffffffffffffffffffffffffffffff16815260200190815260200160002060006101000a81548160ff021916908360ff1602179055506107d9806100b96000396000f3fe60806040526004361061003f5760003560e01c80630ed64c19146100445780633298df761461006f5780639cae1fa41461008b578063b4d47fff146100c8575b600080fd5b34801561005057600080fd5b506100596100f1565b6040516100669190610460565b60405180910390f35b610089600480360381019061008491906104ac565b610145565b005b34801561009757600080fd5b506100b260048036038101906100ad9190610537565b610320565b6040516100bf9190610460565b60405180910390f35b3480156100d457600080fd5b506100ef60048036038101906100ea91906104ac565b610340565b005b6000600160003073ffffffffffffffffffffffffffffffffffffffff1673ffffffffffffffffffffffffffffffffffffffff16815260200190815260200160002060009054906101000a900460ff16905090565b642e90edd0008160ff1661015991906105a4565b64ffffffffff163410156101a2576040517f08c379a000000000000000000000000000000000000000000000000000000000815260040161019990610640565b60405180910390fd5b8060ff16600160003073ffffffffffffffffffffffffffffffffffffffff1673ffffffffffffffffffffffffffffffffffffffff16815260200190815260200160002060009054906101000a900460ff1660ff161015610237576040517f08c379a000000000000000000000000000000000000000000000000000000000815260040161022e906106ac565b60405180910390fd5b80600160003073ffffffffffffffffffffffffffffffffffffffff1673ffffffffffffffffffffffffffffffffffffffff16815260200190815260200160002060008282829054906101000a900460ff1661029291906106cc565b92506101000a81548160ff021916908360ff16021790555080600160003373ffffffffffffffffffffffffffffffffffffffff1673ffffffffffffffffffffffffffffffffffffffff16815260200190815260200160002060008282829054906101000a900460ff166103059190610700565b92506101000a81548160ff021916908360ff16021790555050565b60016020528060005260406000206000915054906101000a900460ff1681565b60008054906101000a900473ffffffffffffffffffffffffffffffffffffffff1673ffffffffffffffffffffffffffffffffffffffff163373ffffffffffffffffffffffffffffffffffffffff16146103ce576040517f08c379a00000000000000000000000000000000000000000000000000000000081526004016103c590610783565b60405180910390fd5b80600160003073ffffffffffffffffffffffffffffffffffffffff1673ffffffffffffffffffffffffffffffffffffffff16815260200190815260200160002060008282829054906101000a900460ff166104299190610700565b92506101000a81548160ff021916908360ff16021790555050565b600060ff82169050919050565b61045a81610444565b82525050565b60006020820190506104756000830184610451565b92915050565b600080fd5b61048981610444565b811461049457600080fd5b50565b6000813590506104a681610480565b92915050565b6000602082840312156104c2576104c161047b565b5b60006104d084828501610497565b91505092915050565b600073ffffffffffffffffffffffffffffffffffffffff82169050919050565b6000610504826104d9565b9050919050565b610514816104f9565b811461051f57600080fd5b50565b6000813590506105318161050b565b92915050565b60006020828403121561054d5761054c61047b565b5b600061055b84828501610522565b91505092915050565b600064ffffffffff82169050919050565b7f4e487b7100000000000000000000000000000000000000000000000000000000600052601160045260246000fd5b60006105af82610564565b91506105ba83610564565b92508164ffffffffff04831182151516156105d8576105d7610575565b5b828202905092915050565b600082825260208201905092915050565b7f6e6f7420656e6f7567682065746865722073656e740000000000000000000000600082015250565b600061062a6015836105e3565b9150610635826105f4565b602082019050919050565b600060208201905081810360008301526106598161061d565b9050919050565b7f6e6f7420656e6f7567682062616c616e63650000000000000000000000000000600082015250565b60006106966012836105e3565b91506106a182610660565b602082019050919050565b600060208201905081810360008301526106c581610689565b9050919050565b60006106d782610444565b91506106e283610444565b9250828210156106f5576106f4610575565b5b828203905092915050565b600061070b82610444565b915061071683610444565b92508260ff0382111561072c5761072b610575565b5b828201905092915050565b7f796f7520646f6e27742068617665207065726d697373696f6e00000000000000600082015250565b600061076d6019836105e3565b915061077882610737565b602082019050919050565b6000602082019050818103600083015261079c81610760565b905091905056fea2646970667358221220f62087845f4195967ec8ebfd6a1f2582b8a580c7dbb0f7df3a28b8f832d701fa64736f6c634300080a0033",
  "immutableReferences": {},
  "source": "// SPDX-License-Identifier: MIT\npragma solidity >=0.4.22 <0.9.0;\n\ncontract VendingMachine {\n    address private owner;\n    mapping(address => uint8) public donutsBalance;\n\n    constructor() {\n        owner = msg.sender;\n        donutsBalance[address(this)] = 100;\n    }\n\n    function getRemainingDonuts() external view returns (uint8) {\n        return donutsBalance[address(this)];\n    }\n\n    function reStock(uint8 amount) external {\n        require(msg.sender == owner, \"you don't have permission\");\n        donutsBalance[address(this)] += amount;\n    }\n\n    function purchase(uint8 amount) external payable {\n        require(msg.value >= amount * 0.0000002 ether, \"not enough ether sent\");\n        require(donutsBalance[address(this)] >= amount, \"not enough balance\");\n        donutsBalance[address(this)] -= amount;\n        donutsBalance[msg.sender] += amount;\n    }\n}\n",
  "sourcePath": "/Users/chandra/Music/crypto-projects/vending-machine/server/contracts/VendingMachine.sol",
  "compiler": {
    "name": "solc",
    "version": "0.8.10+commit.fc410830.Emscripten.clang"
  },
  "schemaVersion": "3.4.3",
  "updatedAt": "2022-03-20T12:47:42.671Z",
  "devdoc": {
    "kind": "dev",
    "methods": {},
    "version": 1
  },
  "userdoc": {
    "kind": "user",
    "methods": {},
    "version": 1
  }
}